:020000040000FA
:060000000A128A110E280D
:10000800FE00030EF0000A08F1007F08F2000A164D
:100018008A11722D0A128A1111288313E330FD0008
:100028000730FE00E330FF00C83084000A168A1546
:10003800C7270A128A116530FD000830FE0000301B
:10004800FF00613084000A168A15C7270A128A1130
:100058000A128A11FE270A128A11F8000A128A1156
:10006800FF270A128A11F900A0308400C8300A1646
:100078008A154D270A128A114630840061300A1603
:100088008A154D270A128A11FA0183010A128A1168
:100098004D28831603135E08E6005F08E700600832
:1000A800E800EC01EC0AE901E501EA01EB010A16B6
:1000B8008A113B240A128A11E63083120313AB001B
:1000C8000030AC00AD010A168A111E260A128A11E8
:1000D8003130F40000300A168A119E210A128A1162
:1000E8003030F40001300A168A119E210A128A1152
:1000F8003130F40002300A168A119E210A128A1140
:100108003030F40003300A168A119E210A128A112F
:10011800F40104300A168A119E210A128A110A3043
:1001280083120313A0000030A1000A168A159E2727
:100138000A128A11740883120313A3007308A20019
:100148000A168A112C250A128A1183120313200811
:1001580083160313EE0064306E02031CB428B5281E
:10016800B7286330EE000A128A115A270A128A1138
:1001780083160313EF00D030E3000730E400FF30AC
:10018800E3070318E40AFF30E407630A031DD028D5
:10019800640A031DD028D128C3283E306F06031DEA
:1001A800D628D728F3287030F3009130F400E630D1
:1001B8000A168A111C220A128A11E63083120313C6
:1001C800AB000030AC00831603136E0883120313D0
:1001D800AD000A168A111E260A128A111A2C3D3001
:1001E8006F06031DF828F9282D290630690203181F
:1001F800FE28FF282D29690883120313C400440729
:10020800C83E840083130008F300840A00088403AE
:10021800F400E6300A168A111C220A128A11E63006
:1002280083120313AB000030AC00831603136E086F
:1002380083120313AD000A168A111E260A128A11A8
:10024800013083120313C400440883160313E9071B
:100258001A2C3B306F06031D32293329602969089F
:1002680003193729382960290130E90269088312FE
:100278000313C4004407C83E840083130008F30036
:10028800840A00088403F400E6300A168A111C2246
:100298000A128A11E63083120313AB000030AC0057
:1002A800831603136E0883120313AD000A168A110E
:1002B8001E260A128A111A2C37306F06031965296F
:1002C80066296C292F306F06031D6B296C29B1290B
:1002D8006C03031D70297129B129F30101300A1635
:1002E8008A1105240A128A11043083120313C500E7
:1002F8003D30C400C40B7E29C50B7E299F30831274
:100308000313A0009030A1008030A2000A168A11C1
:100318006B230A128A11C63083120313AB002030F4
:100328000A168A15D6270A128A11F3010F300A16FF
:100338008A1105240A128A11A53083120313C400F6
:10034800C40BA429A729023083160313EC00ED017E
:10035800ED0A8312031312151A2C11306F06031DB0
:10036800B629B7295C2A04306C06031DBC29BD29AF
:100378005C2A412AF30101300A168A1105240A125F
:100388008A116B3083120313A0009130A1008030D2
:10039800A2000A168A116B230A128A1108308316E2
:1003A8000313EC000830ED001A2CF30101300A1693
:1003B8008A1105240A128A11103083160313EC00DF
:1003C8000430ED001A2C8230AB009130AC0083165B
:1003D80003136E0883120313AD000A168A111E2632
:1003E8000A128A110A128A1530220A128A11F30196
:1003F80001300A168A1105240A128A11043083165C
:100408000313EC000530ED001A2C8E30AB00913050
:10041800AC00831603136E0883120313AD000A168B
:100428008A111E260A128A11F30101300A168A114E
:1004380005240A128A11403083160313EC00103089
:10044800ED001A2C8830AB009130AC0083160313F2
:100458006E0883120313AD000A168A111E260A12AB
:100468008A11F30101300A168A1105240A128A1129
:10047800803083160313EC00AB296508831203133D
:10048800C400C5014508003A03194B2A1A2C440830
:10049800003A0319BE29013A0319D929033A031965
:1004A800E729013A0319092A073A0319262A1A2CB7
:1004B80022306F06031D612A622A782A04306C06EE
:1004C8000319672A682A6E2A08306C06031D6D2AEC
:1004D8006E2A782AEC01EC0AF30101300A168A1117
:1004E80005240A128A111A2C11306F06031D7D2A61
:1004F8007E2A8E2A08306C06031D832A842A8E2AB7
:100508000430EC00F30101300A168A1105240A129E
:100518008A111A2C1A2CF3010C300A168A11052498
:100528000A128A11A53083120313C400C40B9A2A35
:100538009D2A831603136E0883120313AD00E63059
:100548000A168A11C5250A128A113D2C0430831611
:100558000313EC000530ED00F30101300A168A118F
:1005680005240A128A11043083120313C5003D3092
:10057800C400C40BBD2AC50BBD2AF3010C300A16F2
:100588008A1105240A128A11A53083120313C400A4
:10059800C40BCC2ACF2A3D2C83160313EC01EC0A9A
:1005A800831203131211F3010C300A168A11052461
:1005B8000A128A11C82A831603136D0883120313BB
:1005C800AD00831603136F080A128A1555260A12FE
:1005D8008A1183120313C400C5014508003A0319A0
:1005E800F62A3D2C4408013A0319AA2A023A0319AB
:1005F800D02A3D2C831603136D0883120313AD0014
:10060800831603136F080A128A1534210A128A11F5
:1006180083160313E5003D2C831603136D0883121C
:100628000313AD00831603136F080A128A15C52435
:100638000A128A113D2C831603136D080A168A11B3
:100648003C230A128A11113A031D2B2B2C2B322B17
:10065800323083160313EA000030EB0004308316AF
:1006680003136D06031D392B3A2B4B2B7F30831256
:100678000313AB009130AC00831603136E0883128A
:100688000313AD000A168A111E260A128A11831650
:1006980003136B08803AFF0080307F02031D562B3E
:1006A80001306A02031C592B5A2B3D2CFF3083164C
:1006B8000313EA070318EB0AFF30EB076A086B0419
:1006C800031D672B682B3D2C0430EC000530ED0032
:1006D800F30101300A168A1105240A128A11932897
:1006E800831603136D0883120313AD0083160313D7
:1006F8006F080A128A1144240A128A11113A031D3A
:10070800862B872B8D2B643083160313EA00003069
:10071800EB00831603136B08803AFF0080307F02DA
:10072800031D982B01306A02031C9B2B9C2B3D2C2C
:10073800FF3083160313EA070318EB0AFF30EB07B1
:100748006A086B04031DA92BAA2B3D2C0430EC006E
:100758000530ED00F30101300A168A1105240A124A
:100768008A119328643083160313EA000030EB00E3
:10077800F3010C300A168A1105240A128A11F12B8A
:10078800043083160313EC000530ED00F3010C3040
:100798000A168A1105240A128A119328831603134C
:1007A8006D0883120313AD00831603136F080A1232
:1007B8008A1568230A128A1183120313C400C5011B
:1007C8004508003A0319E92BF12B4408033A0319A9
:1007D800C42B123A0319B62BF12B831603136B089B
:1007E800803AFF0080307F02031DFC2B01306A0233
:1007F800031CFF2B002C3D2CFF3083160313EA0744
:100808000318EB0AFF30EB076A086B04031D0D2C75
:100818000E2C3D2C0430EC000530ED00F3010130C6
:100828000A168A1105240A128A11932883160313BB
:100838006C0883120313C400C5014508003A031964
:10084800262C3D2C4408013A03198F2A033A031930
:10085800DF2A063A0319FE2A0C3A0319102B183A14
:1008680003191F2B503A0319742BC03A0319D22BC2
:100878003D2C83160313ED0193280A128A110E28C2
:1008880083120313B10010302D06031D4C2C4D2C80
:10089800DC2C0A168A1135270A128A110F308316A2
:1008A80003133D0583120313AE00831603133C089C
:1008B8000F3983120313AF00B0012F08F30030087B
:1008C800F4000A30F5000030F6000A168A11BB223F
:1008D8000A128A11831203132E087307C600003008
:1008E800031801307407C7000F30831603133F0540
:1008F80083120313AE00831603133E080F398312C5
:100908000313AF00B0012F08F3003008F4000A30D9
:10091800F5000030F6000A168A11BB220A128A1165
:10092800831203132E087307C80000300318013020
:100938007407C9000F30831603134105831203138C
:10094800AE008316031340080F3983120313AF0058
:10095800B0012F08F3003008F4000A30F500003029
:10096800F6000A168A11BB220A128A11831203138F
:100978002E087307CA000030031801307407CB0033
:10098800B030A0009030A1008030A2000A168A1171
:100998006B230A128A11023083160313A000003059
:1009A800A10083120313DC01DB013F30B100DA013F
:1009B8005A080319E02CE12C252E2230592F8316D2
:1009C8000313200883120313AE002E07463E84004B
:1009D800013083138007840A0318800A382E0330F5
:1009E800A4000030A500831603132008013E8312DB
:1009F8000313A6008316031321080318013E003EC3
:100A080083120313A7000A168A1178260A128A117C
:100A180083120313250883160313A10083120313FB
:100A2800240883160313A000382E0A168A113527C6
:100A38000A128A110A30F3000030F40083120313FB
:100A48004708F6004608F5000A168A11B0240A126B
:100A58008A11730883120313AE007408AF000A30BA
:100A6800A0000030A1004708A3004608A2000A160B
:100A78008A112C250A128A11831203132008B00048
:100A880003300310B00DFF3E031D452D0310300D3C
:100A98002E04B6004C08C0393604CC004C08F400CB
:100AA80002300A168A11BC210A128A110A30F30090
:100AB8000030F400831203134908F6004808F500D3
:100AC8000A168A11B0240A128A11730883120313B2
:100AD800AE007408AF000A30A0000030A100490839
:100AE800A3004808A2000A168A112C250A128A11A6
:100AF800831203132008B00003300310B00DFF3E2B
:100B0800031D812D0310300D2E04B6004D088039C9
:100B18003604CD004D08F40001300A168A11BC21B4
:100B28000A128A110A30F3000030F400831203130A
:100B38004B08F6004A08F5000A168A11B0240A1272
:100B48008A11730883120313AE007408AF000A30C9
:100B5800A0000030A1004B08A3004A08A2000A1612
:100B68008A112C250A128A11831203132008B00057
:100B780003300310B00DFF3E031DBD2D0310300DD3
:100B88002E04B6004E0880393604CE004E08F40014
:100B980000300A168A11BC210A128A11F3010130A9
:100BA8000A168A1105240A128A110C3083120313BB
:100BB800A0009130A1008230A2000A168A116B238E
:100BC8000A128A11263083120313A0009130A10063
:100BD800C230A2000A168A116B230A128A11003049
:100BE80083120313B5000030B4000030B3000030A6
:100BF800B200013083120313B2070030031801302A
:100C0800B307003003180130B4070030031801306F
:100C1800B5073508031D1F2E3408031D1F2E4E303F
:100C28003302031D1B2E20303202031D1B2E031C12
:100C38001E2E1F2EFD2D83120313DA01DA0A11303E
:100C4800592F3108AE00AF012F08003A03192D2E95
:100C5800382E2E081F3A0319192D303A0319F32C90
:100C6800183A0319E32C382E003083124702183043
:100C780003194602031C412E422E442EC601C70109
:100C8800003049023C3003194802031C4C2E4D2EFB
:100C98004F2EC801C90100304B023C3003194A02EB
:100CA800031C572E582E5A2ECA01CB010130AE0014
:100CB8002E08DC0733305C06031D632E642EE12CFE
:100CC800DC015B080319692E6B2E01306C2E003095
:100CD800DB00C030AB000A30A0000030A10047089C
:100CE800A3004608A2000A168A112C250A128A11A6
:100CF800831203132008303E0A168A15D6270A12D3
:100D08008A11C13083120313AB000A30F30000309C
:100D1800F4004708F6004608F5000A168A11B024C0
:100D28000A128A117308303E0A168A15D6270A1243
:100D38008A11C23083120313AB003A300A168A159F
:100D4800D6270A128A11C33083120313AB000A3064
:100D5800A0000030A1004908A3004808A2000A1614
:100D68008A112C250A128A11831203132008303E97
:100D78000A168A15D6270A128A11C4308312031359
:100D8800AB000A30F3000030F4004908F6004808C8
:100D9800F5000A168A11B0240A128A117308303E27
:100DA8000A168A15D6270A128A11C5308312031328
:100DB800AB003A300A168A15D6270A128A11C630AD
:100DC80083120313AB000A30A0000030A1004B08C7
:100DD800A3004A08A2000A168A112C250A128A11B1
:100DE800831203132008303E0A168A15D6270A12E2
:100DF8008A11C73083120313AB000A30F3000030A6
:100E0800F4004B08F6004A08F5000A168A11B024C7
:100E18000A128A117308303E0A168A15D6270A1252
:100E28008A11831203135B0803191B2F1C2FE12C53
:100E3800472F243083120313A0009030A100C03044
:100E4800A2000A168A116B230A128A11E12C243097
:100E580083120313A0009030A100C330A2000A1629
:100E68008A116B230A128A11E12C2430831203138E
:100E7800A0009030A100C630A2000A168A116B2388
:100E88000A128A11E12C831603132108003A031968
:100E98004E2FE12C2008003A03191D2F013A03199F
:100EA8002B2F033A0319392FE12C0800831203135F
:100EB80006083F39F3003F3073060319642F652F86
:100EC800712F7A08031D692F6A2F712FFA01FA0A08
:100ED800E301E4017308E000E12F3F307306031DCE
:100EE800762F772F8E2F7A0803197B2F7C2F8E2F42
:100EF800FA016408803AFF0080307F02031D862FC4
:100F08001E3063020318892F8A2FE12F83120313DF
:100F18006008E22F7A080319922F932FA92F6408EB
:100F2800803AFF0080307F02031D9C2F1F30630230
:100F380003189F2FA02FA92F013083120313E30753
:100F48000318E40A0030E407E12F7A080319AD2FEB
:100F5800AE2FC52F1F308312031363066404031DCD
:100F6800B62FB72FC52F37307306031DBC2FBD2FE3
:100F7800C52F0130E3070318E40A0030E4071130F5
:100F8800E22F7A080319C92FCA2FE12F1F308312C5
:100F9800031363066404031DD22FD32FE12F2F30D0
:100FA8007306031DD82FD92FE12F0130E30703184B
:100FB800E40A0030E4072230E22F3F30080085348D
:100FC80091348B3491347334913476349134793448
:100FD80091347C349134543491344A349134F0341B
:100FE800903440349134D03490344F344E340034FB
:100FF80001340034FF34FF34FF34FF34013400344B
:1010080083120313A3002308A4002E280130F5023D
:101018000030031CF603F6027408A1007308A00050
:10102800F30A0319F40A2108FF00200884000A16AD
:101038008A1500200A128A15A200240884000130AB
:10104800A4072208831380000008031D2C282D28DC
:101058002E283D2875087604031D332834280A28CD
:101068003D2824088400831380010130A000200853
:10107800A4070130F5020030031CF603F602750AD6
:10108800031D4A28760A031D4A284B2835280800DC
:1010980083120313A101F41F522853285A28F30975
:1010A800F409F30A0319F40AA101A10AF61F5D283D
:1010B8005E286728F509F609F50A0319F60A0130CA
:1010C800F7007708A106A201A301730874040319A5
:1010D8006E286F28A628A001A00A7D2801300310D9
:1010E800F30DF40DFF3E031D73280130F700770858
:1010F800A007F41F80288128722801300310A20D50
:10110800A30DFF3E031D822874087602031D8E2856
:1011180073087502031C9128922899287308F50210
:101128007408031CF603F602221401300310F40CB1
:10113800F30CFF3E031D9A280130A002031DA528C9
:10114800A628812821080319AA28AB28B028A209B3
:10115800A309A20A0319A30A2308F4002208F3002A
:101168000800C33083120313A100CC30A000A00BE9
:10117800BB28A10BBB280000F30133300A168A11E3
:1011880005240A128A151B3083120313A1009D300F
:10119800A000A00BCD28A10BCD28D228F301333015
:1011A8000A168A1105240A128A15A5308312031318
:1011B800A000A00BDD28E028F30133300A168A11BD
:1011C80005240A128A15E828E9280000F3010230EC
:1011D8000A168A1105240A128A15A53083120313E8
:1011E800A000A00BF528F828F30128300A168A1168
:1011F80005240A128A15A53083120313A000A00B38
:1012080003290629F30101300A168A1105240A1256
:101218008A15043083120313A1003D30A000A00BEF
:101228001329A10B1329F3010C300A168A1105247E
:101238000A128A15A53083120313A000A00B2229D5
:101248002529F3010F300A168A1105240A128A1576
:10125800A53083120313A000A00B302933290800FE
:1012680083120313B00005302D06031D3C293D29C8
:101278004529D301D401013083160313E10000305E
:10128800E200373083123006031D4B294C29802990
:101298005408803AFF0080307F02031D552904302E
:1012A800530203185829592980290130831203133E
:1012B800D3070318D40A0030D4078316031362082F
:1012C800803AFF0080307F02031D6C2902306102E2
:1012D80003186F2970297829013083160313E10751
:1012E8000318E20A0030E207F30101300A168A11F6
:1012F80005240A128A15BB292F30831203133006DE
:10130800031D87298829BB295408803AFF008030AB
:101318007F02031D912901305302031C942995294A
:10132800BB29FF3083120313D3070318D40AFF30F5
:10133800D407831603136208803AFF0080307F02C7
:10134800031DA82902306102031CAB29AC29B4296A
:10135800FF3083160313E1070318E20AFF30E207A0
:10136800F30101300A168A1105240A128A15831618
:10137800031361036204031DC229C329F8298030BD
:1013880083120313AB002A300A168A15D6270A12CD
:101398008A15831203135308AE002E07D43E840027
:1013A80083130008A000840A00088403A100823087
:1013B800A2000A168A116B230A128A1583120313D4
:1013C8005308AE002E07D63E840083130008A00001
:1013D800840A00088403A100C230A2000A168A11F8
:1013E8006B230A128A152C2AC03083120313AB0010
:1013F8002A300A168A15D6270A128A158312031369
:101408005308AE002E07D23E840083130008A000C4
:10141800840A00088403A1008230A2000A168A11F7
:101428006B230A128A15831203135308AE002E0782
:10143800D43E840083130008A000840A00088403B3
:10144800A100C230A2000A168A116B230A128A155B
:101458008312031353080800FF3083120313BA00E2
:10146800FF30BB00B601780A031D3E2A790A031D26
:101478003E2A3F2A492A8E30F4009030F5000A1699
:101488008A1141220A128A15672B5D30F4009130C7
:10149800F5000A168A1141220A128A150A300A161C
:1014A8008A157B270A128A150A300A168A157B279D
:1014B8000A128A150D300A168A157B270A128A1510
:1014C800572B013083120313BA070318BB0A0030E5
:1014D800BB075F08031D712A722A752AB801B90172
:1014E8008C2A0A30A4000030A5006108013EA6003D
:1014F80062080318013E003EA7000A168A117826E2
:101508000A128A15831203132508B9002408B800A3
:101518000A30A4000030A5003A083807A6003B08A6
:1015280003183B0A3907A7000A168A1178260A12F7
:101538008A15831203132508B9002408B800BC01D2
:10154800BD010A30F3008312031338080A168A15FE
:10155800EB270A128A15831203133C07053EB700CE
:101568003C082C3E840037080A168A1111230A12F7
:101578008A1583138000013083120313BC070318F4
:10158800BD0A0030BD073D08803AFF0080307F0269
:10159800031DD02A0A303C02031CD32AD42AA52AC8
:1015A800831203133A08303E0A168A157B270A125B
:1015B8008A1520300A168A157B270A128A15831283
:1015C80003132C080A168A157B270A128A15831218
:1015D80003132D080A168A157B270A128A153A3032
:1015E8000A168A157B270A128A15831203132E08F6
:1015F8000A168A157B270A128A15831203132F08E5
:101608000A168A157B270A128A153A300A168A158D
:101618007B270A128A158312031330080A168A15C3
:101628007B270A128A158312031331080A168A15B2
:101638007B270A128A1520300A168A157B270A1278
:101648008A158312031332080A168A157B270A1291
:101658008A158312031333080A168A157B270A1280
:101668008A1520300A168A157B270A128A158312D2
:10167800031334080A168A157B270A128A1583125F
:10168800031335080A168A157B270A128A150A30A9
:101698000A168A157B270A128A150D300A168A152A
:1016A8007B270A128A15831203133B08803AAB0082
:1016B8007908803A2B02031D632B78083A02031C31
:1016C800662B672B652A080083120313B0002D03CD
:1016D800031D6F2B702B872B2230F3009030F40002
:1016E8000430F5000030F600B3300A128A150420E1
:1016F8000A128A1583120313CF01D001D9011E30B3
:10170800D5000030D60055085604031D8C2B8D2BB0
:101718008F2B0330C42C59080319932B942B962B29
:101728002230C42C5008803AFF0080307F02031D0D
:101738009F2B04304F020318A22BA32BB12B273069
:1017480083120313A0009030A1008030A2000A1673
:101758008A116B230A128A153B2C83120313500833
:10176800803AFF0080307F02031DBC2B04304F02FB
:10177800031CBF2BC02B3B2C831203135008803A49
:10178800FF0080307F02031DCB2B08304F02031867
:10179800CE2BCF2B3B2C003083120313A0009030AC
:1017A800A1008030A2000A168A116B230A128A153A
:1017B8003B2C4F08B33E84003030831380004F0821
:1017C8000339C03EAB002A300A168A15D6270A12FA
:1017D8008A15013083120313CF070318D00A00308B
:1017E800D0071E30D5000030D60004304F06500414
:1017F800031DFF2B002C4D2C1530A0009030A100AC
:10180800C030A2000A168A116B230A128A154D2CC1
:101818004F08B33E84003130831380004F080339EA
:10182800C03EAB002A300A168A15D6270A128A1536
:10183800013083120313CF070318D00A0030D007F2
:101848001E30D5000030D60004304F065004031D6A
:101858002E2C2F2C4D2C1530A0009030A100C0301C
:10186800A2000A168A116B230A128A154D2C8312BC
:1018780003133008AE00AF012F08003A0319452CB6
:101888004D2C2E082F3A0319DD2B183A03190C2C6E
:101898004D2C0830831203134F065004031D552C9A
:1018A800562C942BB730F3000430F4000030F500C8
:1018B800B3300A168A11EC240A128A1573087404C4
:1018C800031D672C682CA22C83160313BB01B730A9
:1018D800F60000300A168A11DA210A128A15013038
:1018E80083120313CF070318D00A0030D007F3017F
:1018F80001300A168A1105240A128A156C308312DF
:101908000313A0009030A1008030A2000A168A11AB
:101918006B230A128A15FE3083120313A00090303D
:10192800A100C230A2000A168A116B230A128A1576
:1019380083120313D901D90A1130C42CF3010130E1
:101948000A168A1105240A128A157D308312031398
:10195800A0009030A1008030A2000A168A116B23E3
:101968000A128A15643083120313A0009130A10073
:10197800C530A2000A168A116B230A128A159C2CFC
:10198800080083120313BB00B901780A031DD02C89
:10199800790A031DD02CD12CDD2C8E30A00090307C
:1019A800A100C030A2000A168A116B230A128A15F8
:1019B800542E08302D06031DE22CE32CE52CD10112
:1019C800D2015F08031DE92CEA2CED2CC001C101EE
:1019D800042D0A30A4000030A5006108013EA600CD
:1019E80062080318013E003EA7000A168A117826ED
:1019F8000A128A15831203132508C1002408C0009F
:101A080037303B06031D092D0A2D2C2D5208803A2C
:101A1800AE007908803A2E02031D142D7808510271
:101A28000318172D182D2C2D013083120313D107FD
:101A38000318D20A0030D2071530A0009030A10058
:101A4800C030A2000A168A116B230A128A15542D77
:101A58002F30831203133B06031D332D342D542DD1
:101A68005208803AFF0080307F02031D3D2D01306F
:101A78005102031C402D412D542DFF3083120313B6
:101A8800D1070318D20AFF30D2071530A0009030D2
:101A9800A100C030A2000A168A116B230A128A1507
:101AA8000A3083120313A4000030A5005108400730
:101AB800A60052080318520A4107A7000A168A11FD
:101AC80078260A128A15831203132508C1002408F0
:101AD800C000C201C3010A30F30083120313400897
:101AE8000A168A15EB270A128A158312031342076E
:101AF800053EBA0042082F3E84003A080A168A11A9
:101B080011230A128A1583138000013083120313EC
:101B1800C2070318C30A0030C3074308803AFF000E
:101B280080307F02031D9A2D0A304202031C9D2D2E
:101B38009E2D6F2DC03083120313AB005108303E29
:101B48000A168A15D6270A128A15C2308312031379
:101B5800AB002F080A168A15D6270A128A15C33031
:101B680083120313AB0030080A168A15D6270A1207
:101B78008A15C43083120313AB003A300A168A154B
:101B8800D6270A128A15C53083120313AB00310811
:101B98000A168A15D6270A128A15C6308312031325
:101BA800AB0032080A168A15D6270A128A15C730DA
:101BB80083120313AB003A300A168A15D6270A1285
:101BC8008A15C83083120313AB0033080A168A1526
:101BD800D6270A128A15C93083120313AB003408BA
:101BE8000A168A15D6270A128A15CB3083120313D0
:101BF800AB0035080A168A15D6270A128A15CC3082
:101C080083120313AB0036080A168A15D6270A1260
:101C18008A15CE3083120313AB0037080A168A15CB
:101C2800D6270A128A15CF3083120313AB0038085F
:101C38000A168A15D6270A128A150030831203134A
:101C4800BF000030BE000030BD000030BC000130D5
:101C580083120313BC07003003180130BD0700309E
:101C680003180130BE07003003180130BF073F08D2
:101C7800031D4D2E3E08031D4D2E4E303D02031D03
:101C8800492E20303C02031D492E031C4C2E4D2E9C
:101C98002B2EF3010C300A168A1105240A128A1514
:101CA800080083120313B5002D03031D5C2E5D2E5F
:101CB800712E3F30B5000330DD00DE01D701D801B9
:101CC80083160313C301C401C501C601C70105304A
:101CD80083120313D5000030D60055085604031D9F
:101CE800762E772E792E0330FF2FF3010F300A1648
:101CF8008A1105240A128A15373083120313350610
:101D0800031D872E882EA82E04305E0203188D2E00
:101D18008E2EA82E0530D5000030D6005E08C33EB2
:101D280084003130831380005E08C63EAB002A3041
:101D38000A168A15D6270A128A1501308312031348
:101D4800AE002E08DE07C82E2F303506031DAD2E37
:101D5800AE2EC82E04305E020318B32EB42EC82E41
:101D68000530D5000030D6005E08C33E8400303010
:101D7800831380005E08C63EAB002A300A168A1517
:101D8800D6270A128A15A12E04305E06031DCD2E11
:101D9800CE2EFE2F30300A168A1167220A128A15B3
:101DA8003030F300C3300A168A1191220A128A15BC
:101DB80073087404031DE12EE22EE42E0130FF2F78
:101DC800013083120313DD02031DEB2EEC2E892F45
:101DD800F3010C300A168A1105240A128A15F30138
:101DE80001300A168A1105240A128A150430831252
:101DF8000313AF003D30AE00AE0B002FAF0B002F2A
:101E0800C03083120313A0009030A1008030A200DC
:101E18000A168A116B230A128A155B308312031380
:101E2800A0009030A100C030A2000A168A116B23CE
:101E38000A128A15843083120313D7000330D8009E
:101E48007E2FCB30AB000A30A4000030A500580824
:101E5800A7005708A6000A168A1178260A128A15BA
:101E6800831203132408303E0A168A15D6270A124D
:101E78008A15CA3083120313AB000A30A40000305D
:101E8800A5000A30F3000030F4005808F60057089F
:101E9800F5000A128A154C200A128A157408831252
:101EA8000313A7007308A6000A168A1178260A12D7
:101EB8008A15831203132408303E0A168A15D6277A
:101EC8000A128A15C93083120313AB006430F30079
:101ED8000030F4005808F6005708F5000A128A1571
:101EE8004C200A128A157308303E0A168A15D6271E
:101EF8000A128A158312031357085804031D852FE5
:101F0800862F252F0330DD00D92FF30101300A1663
:101F18008A1105240A128A15043083120313AF00AC
:101F28003D30AE00AE0B962FAF0B962FF3010C3061
:101F38000A168A1105240A128A15A530831203137A
:101F4800AE00AE0BA52FA82F393083120313A000C3
:101F58009030A1008030A2000A168A116B230A1261
:101F68008A15C03083120313AB005D08303E0A1691
:101F78008A15D6270A128A15E03083120313A000A7
:101F88009030A100C230A2000A168A116B230A12EF
:101F98008A15033083120313D7000030D80057087E
:101FA8005804031DD82FD92FD32FF30101300A1657
:101FB8008A1105240A128A15043083120313AF000C
:101FC8003D30AE00AE0BE62FAF0BE62F9F308312ED
:101FD8000313A0009030A1008030A2000A168A11D5
:101FE8006B230A128A1583120313DE010530D5000C
:101FF8000030D6001030080052346534203465347F
:102008006E3474346534723420346E346534773405
:10201800203470347734643420342034203420342D
:102028000034203420342034203420342034203428
:1020380020342034203420342034203420342034F8
:1020480020342034003445346E34743465347234AA
:1020580020346E3465347734203470347734643403
:10206800203420342034203400342034573452347F
:102078004F344E344734203450344134533453347D
:1020880057344F345234443420340034203420340C
:10209800543449344D3445342034203420342034E9
:1020A80020344534203420345334503400347734C9
:1020B800613469347434203466346F3472342034B3
:1020C8003934303430342034733465346334003474
:1020D800503461347334733477346F347234643405
:1020E80020346334683461346E346734653464345E
:1020F8000034503461347334733477346F34723449
:102108006434203420346334683461346E34673482
:10211800653400344E346F3420346C346F34673493
:102128007334203461347634613469346134623410
:102138006C3465340034203445344E3454344534DA
:1021480052342034503441345334533457344F3498
:102158005234443420340034543469346D34653492
:1021680020342834483448343A344D344D343A34E1
:10217800533453342934003459346F34753420348B
:10218800613472346534203462346C346F346334AF
:102198006B346534643400344334683461346E34E9
:1021A800673465342034703461347334733477346D
:1021B8006F34723464340034613474347434653484
:1021C8006D34703474342034523465346D34613471
:1021D80069346E347334003444346F3477346E3475
:1021E8006C346F346134643420346C346F34673445
:1021F8002034003473347534633463346534733491
:102208007334663475346C346C3479342034003467
:10221800543469346D34653420346334683461343B
:102228006E3467346534643400344C346F34673446
:102238007334203463346C346534613472346534F7
:10224800643400345334753463346334653473341C
:102258007334663475346C346C34793400347334C4
:102268007534633463346534733473346634753465
:102278006C346C3479340034533465347434203419
:10228800743469346D3465342034003443346C3428
:1022980065346134723420346C346F3467340034FC
:1022A800563469346534773420346C346F34673489
:1022B80000344C346F346734733420343A34003487
:1022C8006634613469346C346534643400344C34B5
:1022D8006F34673473340034433420340034473463
:1022E8003134003447343234003447343334003422
:1022F80047343434003443344C34003444344C349C
:10230800003447344E3400344334503400344734B6
:1023180052340034433454340034831203131214F7
:102328009214FA308316031392008C148312031349
:1023380012110800F5000A168A1555270A168A117F
:10234800A0300A168A1570270A168A1175080A1607
:102358008A1570270A168A1174080A168A157027B2
:102368000A168A110A168A155E270A168A110800A3
:10237800F5000A168A1555270A168A11D0300A164A
:102388008A1570270A168A1175080A168A15702781
:102398000A168A1174080A168A1570270A168A11ED
:1023A8000A168A155E270A168A1108008312031373
:1023B800A000F229760884000008F40020080A1614
:1023C8008A119E210A168A110130F7007708F6074C
:1023D8000130F700770883120313A00776088400FA
:1023E80083130008031DF929FA29DE290800F300E0
:1023F8000A168A1591270A168A118316031391154E
:102408000A168A1591270A168A11831203131308CC
:10241800F4007303031D112A122A162A83160313C4
:102428009116192A831603139112111674080800BD
:10243800F7007708F6002A2A0130F5007508F60734
:102448000130F3070318F40A0030F4077408831204
:102458000313FF00730884000A168A1500200A1661
:102468008A11F50076088400750883138000000837
:10247800031D3F2A402A202A0800562A7508FF0013
:10248800740884000A168A1500200A168A110A168A
:102498008A157B270A168A110130F4070318F50AF2
:1024A8000030F507750883120313FF0074088400D1
:1024B8000A168A1500200A168A11003A031D652A91
:1024C800662A422A080083120313A000A101A20170
:1024D8008312031321082007F700770884002108D6
:1024E8000A168A1111230A168A11831380000130F3
:1024F80083120313A1070318A20A0030A2072208B7
:10250800803AFF0080307F02031D8C2A05302102AB
:10251800031C8F2A902A6C2A080083120313A10037
:102528009D2A0130F5007508A1070130F5007508EE
:10253800F3077308840083130008F500210884005A
:102548000008F60075087602A0002008031DAD2AD1
:10255800AE2AB52A210884000008031DB42AB52A2A
:10256800952A2008F300F401F31BF40308008312F2
:102578000313A001A101731CC22AC32ACB2A750820
:1025880083120313A0070318A10A7608A1070130D4
:102598000310F50DF60DFF3E031DCC2A0130031084
:1025A800F40CF30CFF3E031DD32A73087404031DB7
:1025B800DE2ADF2ABF2A831203132108F400200829
:1025C800F3000800F5000A168A1555270A168A111D
:1025D800D0300A168A1570270A168A1175080A1645
:1025E8008A1570270A168A110A168A1567270A1685
:1025F8008A11D1300A168A1570270A168A110030F6
:102608000A168A11FB210A168A11F6000A168A157B
:102618005E270A168A1176080800F5000A168A1538
:1026280055270A168A11A0300A168A1570270A1625
:102638008A1175080A168A1570270A168A110A1649
:102648008A1567270A168A11A1300A168A15702773
:102658000A168A1100300A168A11FB210A168A11F5
:10266800F6000A168A155E270A168A1176080800E7
:10267800F700193083120313A0009130A1008230B3
:10268800A2000A168A116B230A168A1133308312A4
:102698000313A0009130A100C230A2000A168A11CB
:1026A8006B230A168A1104307706031D5C2B5D2BF9
:1026B800692BFF3083120313E100FF30E200FF3083
:1026C800F800FF30F90011306A2B22300800F301BE
:1026D8008312031322080A168A1105240A168A117E
:1026E8008D2BF301F30A2108FF00200884000A1645
:1026F8008A1500200A168A110A168A1105240A1654
:102708008A11013083120313A0070318A10A0030AD
:10271800A107831203132108FF00200884000A166A
:102728008A1500200A168A11003A031D9C2B9D2B3E
:10273800752B080083120313981718162D08F40038
:102748002E08F5002F08F6003008F70004300310B3
:10275800F40DF50DF60DF70DFF3E031DAB2B7708B5
:10276800A3007608A2007508A1007408A000013033
:10277800A7003130A6002D30A5000030A4000A16AD
:102788008A1198270A168A11831203132008FF3E1C
:102798008316031399008C160800831203139415EB
:1027A8002D08F4002E08F5002F08F6003008F70071
:1027B80002300310F40DF50DF60DF70DFF3E031D65
:1027C800DD2B7708A3007608A2007508A10074081D
:1027D800A0000130A7003130A6002D30A500003040
:1027E800A4000A168A1198270A168A11831203135D
:1027F8002008FF3E831603139300831203139416D5
:102808000800F6007318092C0D2C83120313091500
:10281800102C8312031309117608F03988008914E3
:10282800A630F400F40B162C000083120313891051
:1028380076080F39F40003300310F40DFF3E031D32
:10284800202C0310740D88008914A630F400F40BB2
:102858002B2C00008312031389101B30F5009E30C7
:10286800F400F40B352CF50B352C000008000A1683
:102878008A1586270A168A11003083120313B000BE
:102888000130AF008630AE00A030AD000A168A11C4
:10289800D1230A168A110A168A15B0270A168A1130
:1028A8000A168A1546270A168A110A168A15402713
:1028B8000A168A110A168A1191210A168A110030FD
:1028C80083120313B0000030AF002530AE00803013
:1028D800AD000A168A119E230A168A118B170B1748
:1028E8000800013083120313E1070318E20A0030DD
:1028F800E2070A3061066204031D832C842C882CAD
:10290800E101E201DF01DF0A0A30F30061080A167B
:102918008A15EB270A168A11053E83120313A100B4
:10292800A830F60021080A168A11DA210A168A1137
:102938007908803AFF0080307F02031DA52C0930FA
:1029480078020318A82CA92CAF2C0130F80703181B
:10295800F90A0030F9070800730874040319B52C44
:10296800B62CE72C83120313A001A00AC62C013051
:102978000310F30DF40DFF3E031DBC2C0130F700CE
:102988007708A007F41FC92CCA2CBB2C7408760240
:10299800031DD02C73087502031CD32CD42CDA2CFD
:1029A8007308F5027408031CF603F60201300310DD
:1029B800F40CF30CFF3E031DDB2C0130A002031DB9
:1029C800E62CE72CCA2C7608F4007508F3000800FA
:1029D80083120313A0001B2D200884008313000812
:1029E8000319F72CF82C042D730884000008F6004E
:1029F80020088400000876060319032D042D132DE2
:102A0800730884000008F600200884000008F70016
:102A180076087702F300F401031CF4032B2D013030
:102A2800F6007608A0070130F6007608F3070130B3
:102A3800F4020030031CF503F502740A031D282D67
:102A4800750A031D282D292DF02CF301F401080027
:102A580083120313A501A601200821040319352DAB
:102A6800362D6D2DA401A40A442D01300310A00DAC
:102A7800A10DFF3E031D3A2D0130F7007708A4078A
:102A8800A11F472D482D392D01300310A50DA60D86
:102A9800FF3E031D492D21082302031D552D200843
:102AA8002202031C582D592D602D2008A20221084E
:102AB800031CA303A302251401300310A10CA00CCE
:102AC800FF3E031D612D0130A402031D6C2D6D2DE9
:102AD800482D2608A1002508A0000800831203132A
:102AE8008C1C772D782DBC2D013083160313A2077B
:102AF8000318A30A0030A307E230220604300319A2
:102B08002306031D882D892DB92DA201A301831247
:102B180003135808803AFF0080307F02031D962D6A
:102B280001305702031C992D9A2DA22DFF308312D4
:102B38000313D7070318D80AFF30D80783120313E3
:102B48005608803AFF0080307F02031DAD2D01300A
:102B58005502031CB02DB12DB92DFF30831203137C
:102B6800D5070318D60AFF30D607831203138C1033
:102B78007208FF0071088A00700E8300FE0E7E0E38
:102B8800090083120313B0004A30A0009030A1005E
:102B98008030A2000A168A116B230A168A11831242
:102BA80003133008A0000030A100CB30A2000A16A1
:102BB8008A116B230A168A11CE3083120313AB00D5
:102BC8000A30F3000030F4002D08AE00AF012E08E3
:102BD800F5002F08F6000A128A154C200A168A11E9
:102BE8007308303E0A168A15D6270A168A11CF307E
:102BF80083120313AB000A30A4000030A5002D088F
:102C0800AE00AF012E08A6002F08A7000A168A11E9
:102C180078260A168A11831203132408303E0A16EE
:102C28008A15D6270A168A110A168A11D3260A1671
:102C38008A1108000A168A1135270A168A11BC302B
:102C4800F3000030F4000630F5000030F600A8303C
:102C58000A128A1504200A168A11831203132B08F4
:102C6800F3002C08F4000230F5000030F600AE3016
:102C78000A128A1504200A168A110A30F300003055
:102C8800F400831203132D08AE00AF012E08F500DF
:102C98002F08F6000A128A154C200A168A117308A2
:102CA800303E83160313B0000A3083120313A400C6
:102CB8000030A5002D08AE00AF012E08A6002F0891
:102CC800A7000A168A1178260A168A118312031396
:102CD8002408303E83160313B100B2010A168A1184
:102CE80075240A168A11080083120313AA01A71F64
:102CF8007E2E7F2E862EA609A709A60A0319A70AE3
:102D0800AA01AA0AA51F892E8A2E8F2EA409A50911
:102D1800A40A0319A50A240825040319942E952E3C
:102D2800C42EA901A90AA32E01300310A40DA50DD4
:102D3800FF3E031D992E0130A8002808A907A51FEA
:102D4800A62EA72E982E25082702031DAD2E24088F
:102D58002602031CB02EB12EB72E2408A602250881
:102D6800031CA703A70201300310A50CA40CFF3E07
:102D7800031DB82E0130A902031DC32EC42EA72E91
:102D88002A080319C82EC92ECE2EA609A709A60AF5
:102D98000319A70A2708A5002608A40008000A1690
:102DA8008A1135270A168A11C23083120313AB0021
:102DB800831603133C080A168A15D6270A168A11A1
:102DC800C33083120313AB00831603133D080A169E
:102DD8008A15D6270A168A11C43083120313AB004A
:102DE8003A300A168A15D6270A168A11C530831270
:102DF8000313AB00831603133E080A168A15D62759
:102E08000A168A11C63083120313AB008316031304
:102E18003F080A168A15D6270A168A11C730831260
:102E28000313AB003A300A168A15D6270A168A11F8
:102E3800C83083120313AB008316031340080A1625
:102E48008A15D6270A168A11C93083120313AB00D4
:102E58008316031341080A168A15D6270A168A11FB
:102E6800080002300A168A11E6220A168A1183120D
:102E78000313CC0001300A168A11E6220A168A11B9
:102E880083120313CD0000300A168A11E6220A16AF
:102E98008A1183120313CE004C08F7000430031084
:102EA800F70CFF3E031D532F77080339303E831676
:102EB8000313BC00831203134C080F39303E8316EA
:102EC8000313BD00831203134D08F70004300310E9
:102ED800F70CFF3E031D6B2F77080739303E83162A
:102EE8000313BE00831203134D080F39303E8316B7
:102EF8000313BF00831203134E08F70004300310B6
:102F0800F70CFF3E031D832F77080739303E8316E1
:102F18000313C000831203134E080F39303E831683
:102F28000313C100C2010800003083120313AB0071
:102F38000030AA000030A9000030A80023082204AD
:102F4800210420040319A92FAA2FF72FAC01AC0ADA
:102F5800BA2F0130F3000310A00DA10DA20DA30D8F
:102F6800F30BAF2F0130F3007308AC07A31FBD2F7D
:102F7800BE2FAD2F0130F3000310A80DA90DAA0D27
:102F8800AB0DF30BC02F23082702031DD52F2208F2
:102F98002602031DD52F21082502031DD52F200841
:102FA8002402031CD82FD92FE82F2008A4022108B7
:102FB800031C210FA5022208031C220FA6022308C6
:102FC800031C230FA702281401300310A30CA20C22
:102FD800A10CA00CFF3E031DE92F0130AC02031D1C
:102FE800F62FF72FBE2F2B08A3002A08A2002908C6
:102FF800A1002808A0000800FF1B0A2883137F18D7
:1030080083170008840A0319FF0A08007F087F391C
:0C3018008A000408840A0319FF0A8200E1
:103E80008316031306083F388600080083160313C1
:103E90009F17831203131F14080064008001840A13
:103EA00004060319003404064E2F0A168A159127BA
:103EB0000A168A1583160313111408000A168A15A8
:103EC00091270A168A1583160313111508000A167E
:103ED0008A1591270A168A15831603139114080070
:103EE000F3000A168A1591270A168A157308831299
:103EF000031393000800F30073088312031399005F
:103F00000C1E832F842F802F0C120800831603139E
:103F10008801091189100A128A15B5200A168A1516
:103F20000800831603131419962F972F912F110849
:103F30001F39031D9C2F9D2F912F080083120313FF
:103F40001F151F19A42FA52FA12F1E08F6008316D9
:103F500003131E08F5007608F4007508F300080046
:103F600000300A168A11E6220A168A15F700770829
:103F70007F39F7007708F40000300A168A11BC2157
:103F80000A168A1508007E088A007F0882000A1631
:103F90008A15C3270A168A158000840A04087D063C
:103FA00003190034FF0A0319FE0AC72F83120313F3
:103FB000AC00F3012B080A168A1105240A168A158B
:103FC000F301F30A831203132C080A168A1105243D
:103FD0000A168A150800F600F501761CF02FF12F5D
:103FE000F52F7308F4007408F5070310F30D0310A0
:103FF000F60C7608031DFD2FFE2FED2F7508080027
:02400E00FB3F76
:00000001FF
